{"abi":[{"type":"constructor","inputs":[{"name":"_trustedAddress","type":"address","internalType":"address"},{"name":"_claimFee","type":"uint256","internalType":"uint256"},{"name":"_protocolRewards","type":"address","internalType":"address"}],"stateMutability":"nonpayable"},{"type":"function","name":"campaigns","inputs":[{"name":"","type":"address","internalType":"address"},{"name":"","type":"uint256","internalType":"uint256"}],"outputs":[{"name":"tokenAddress","type":"address","internalType":"address"},{"name":"maxClaims","type":"uint256","internalType":"uint256"},{"name":"noOfClaims","type":"uint256","internalType":"uint256"},{"name":"amountPerClaim","type":"uint256","internalType":"uint256"},{"name":"isInactive","type":"uint256","internalType":"uint256"},{"name":"maxSponsoredClaims","type":"uint256","internalType":"uint256"},{"name":"noOfSponsoredClaims","type":"uint256","internalType":"uint256"}],"stateMutability":"view"},{"type":"function","name":"claim","inputs":[{"name":"_campaignManager","type":"address","internalType":"address"},{"name":"_campaignId","type":"uint256","internalType":"uint256"},{"name":"r","type":"bytes32","internalType":"bytes32"},{"name":"s","type":"bytes32","internalType":"bytes32"},{"name":"v","type":"uint8","internalType":"uint8"},{"name":"_referrer","type":"address","internalType":"address"}],"outputs":[],"stateMutability":"payable"},{"type":"function","name":"claimFee","inputs":[],"outputs":[{"name":"","type":"uint256","internalType":"uint256"}],"stateMutability":"view"},{"type":"function","name":"createCampaign","inputs":[{"name":"_campaignManager","type":"address","internalType":"address"},{"name":"_tokenAddress","type":"address","internalType":"address"},{"name":"_maxClaims","type":"uint256","internalType":"uint256"},{"name":"_amountPerClaim","type":"uint256","internalType":"uint256"},{"name":"_maxSponsoredClaims","type":"uint256","internalType":"uint256"}],"outputs":[{"name":"_campaignId","type":"uint256","internalType":"uint256"}],"stateMutability":"payable"},{"type":"function","name":"eip712Domain","inputs":[],"outputs":[{"name":"fields","type":"bytes1","internalType":"bytes1"},{"name":"name","type":"string","internalType":"string"},{"name":"version","type":"string","internalType":"string"},{"name":"chainId","type":"uint256","internalType":"uint256"},{"name":"verifyingContract","type":"address","internalType":"address"},{"name":"salt","type":"bytes32","internalType":"bytes32"},{"name":"extensions","type":"uint256[]","internalType":"uint256[]"}],"stateMutability":"view"},{"type":"function","name":"hasClaimed","inputs":[{"name":"","type":"bytes32","internalType":"bytes32"}],"outputs":[{"name":"","type":"uint256","internalType":"uint256"}],"stateMutability":"view"},{"type":"function","name":"increaseMaxSponsoredClaims","inputs":[{"name":"_campaignManager","type":"address","internalType":"address"},{"name":"_campaignId","type":"uint256","internalType":"uint256"},{"name":"_additionalSponsoredClaims","type":"uint256","internalType":"uint256"}],"outputs":[],"stateMutability":"payable"},{"type":"function","name":"owner","inputs":[],"outputs":[{"name":"","type":"address","internalType":"address"}],"stateMutability":"view"},{"type":"function","name":"protocolRewards","inputs":[],"outputs":[{"name":"","type":"address","internalType":"contract ProtocolRewards"}],"stateMutability":"view"},{"type":"function","name":"renounceOwnership","inputs":[],"outputs":[],"stateMutability":"nonpayable"},{"type":"function","name":"setClaimFee","inputs":[{"name":"_claimFee","type":"uint256","internalType":"uint256"}],"outputs":[],"stateMutability":"payable"},{"type":"function","name":"setSponsoredClaimFee","inputs":[{"name":"_sponsoredClaimFee","type":"uint256","internalType":"uint256"}],"outputs":[],"stateMutability":"payable"},{"type":"function","name":"setTreasury","inputs":[{"name":"_treasury","type":"address","internalType":"address"}],"outputs":[],"stateMutability":"payable"},{"type":"function","name":"setTrustedAddress","inputs":[{"name":"_trustedAddress","type":"address","internalType":"address"}],"outputs":[],"stateMutability":"payable"},{"type":"function","name":"splitAndDepositRewards","inputs":[{"name":"_amount","type":"uint256","internalType":"uint256"},{"name":"_platform","type":"address","internalType":"address"},{"name":"_creator","type":"address","internalType":"address"},{"name":"_referrer","type":"address","internalType":"address"}],"outputs":[{"name":"","type":"uint256","internalType":"uint256"},{"name":"","type":"uint256","internalType":"uint256"},{"name":"","type":"uint256","internalType":"uint256"}],"stateMutability":"payable"},{"type":"function","name":"splitRewards","inputs":[{"name":"_amount","type":"uint256","internalType":"uint256"},{"name":"_platform","type":"address","internalType":"address"},{"name":"_creator","type":"address","internalType":"address"},{"name":"_referrer","type":"address","internalType":"address"}],"outputs":[{"name":"","type":"uint256","internalType":"uint256"},{"name":"","type":"uint256","internalType":"uint256"},{"name":"","type":"uint256","internalType":"uint256"}],"stateMutability":"pure"},{"type":"function","name":"sponsoredClaimFee","inputs":[],"outputs":[{"name":"","type":"uint256","internalType":"uint256"}],"stateMutability":"view"},{"type":"function","name":"totalClaimFees","inputs":[],"outputs":[{"name":"","type":"uint256","internalType":"uint256"}],"stateMutability":"view"},{"type":"function","name":"transferOwnership","inputs":[{"name":"newOwner","type":"address","internalType":"address"}],"outputs":[],"stateMutability":"nonpayable"},{"type":"function","name":"treasury","inputs":[],"outputs":[{"name":"","type":"address","internalType":"address"}],"stateMutability":"view"},{"type":"function","name":"withdrawCampaign","inputs":[{"name":"_campaignId","type":"uint256","internalType":"uint256"}],"outputs":[],"stateMutability":"nonpayable"},{"type":"function","name":"withdrawTotalClaimFees","inputs":[{"name":"_treasury","type":"address","internalType":"address"}],"outputs":[],"stateMutability":"payable"},{"type":"event","name":"CampaignClaimed","inputs":[{"name":"campaignManager","type":"address","indexed":true,"internalType":"address"},{"name":"campaignId","type":"uint256","indexed":true,"internalType":"uint256"},{"name":"claimer","type":"address","indexed":true,"internalType":"address"},{"name":"tokenAddress","type":"address","indexed":false,"internalType":"address"},{"name":"amount","type":"uint256","indexed":false,"internalType":"uint256"}],"anonymous":false},{"type":"event","name":"CampaignCreated","inputs":[{"name":"campaignManager","type":"address","indexed":true,"internalType":"address"},{"name":"campaignId","type":"uint256","indexed":true,"internalType":"uint256"}],"anonymous":false},{"type":"event","name":"CampaignWithdrawn","inputs":[{"name":"campaignManager","type":"address","indexed":true,"internalType":"address"},{"name":"campaignId","type":"uint256","indexed":true,"internalType":"uint256"}],"anonymous":false},{"type":"event","name":"ClaimFeePaid","inputs":[{"name":"claimFee","type":"uint256","indexed":false,"internalType":"uint256"},{"name":"claimFeePayer","type":"address","indexed":false,"internalType":"address"},{"name":"claimFeeRecipient","type":"address","indexed":false,"internalType":"address"},{"name":"campaignManager","type":"address","indexed":false,"internalType":"address"},{"name":"campaignId","type":"uint256","indexed":false,"internalType":"uint256"},{"name":"referrer","type":"address","indexed":false,"internalType":"address"}],"anonymous":false},{"type":"event","name":"EIP712DomainChanged","inputs":[],"anonymous":false},{"type":"event","name":"OwnershipTransferred","inputs":[{"name":"previousOwner","type":"address","indexed":true,"internalType":"address"},{"name":"newOwner","type":"address","indexed":true,"internalType":"address"}],"anonymous":false},{"type":"event","name":"SponsoredClaimFeesPaid","inputs":[{"name":"sponsoredClaims","type":"uint256","indexed":false,"internalType":"uint256"},{"name":"claimFee","type":"uint256","indexed":false,"internalType":"uint256"},{"name":"claimFeeRecipient","type":"address","indexed":false,"internalType":"address"}],"anonymous":false},{"type":"event","name":"Withdrawal","inputs":[{"name":"amount","type":"uint256","indexed":false,"internalType":"uint256"},{"name":"treasury","type":"address","indexed":true,"internalType":"address"}],"anonymous":false},{"type":"error","name":"AlreadyClaimed","inputs":[]},{"type":"error","name":"ECDSAInvalidSignature","inputs":[]},{"type":"error","name":"ECDSAInvalidSignatureLength","inputs":[{"name":"length","type":"uint256","internalType":"uint256"}]},{"type":"error","name":"ECDSAInvalidSignatureS","inputs":[{"name":"s","type":"bytes32","internalType":"bytes32"}]},{"type":"error","name":"ExceedsMaxClaims","inputs":[]},{"type":"error","name":"InactiveCampaign","inputs":[]},{"type":"error","name":"IncorrectValue","inputs":[]},{"type":"error","name":"InvalidAddress","inputs":[]},{"type":"error","name":"InvalidCount","inputs":[]},{"type":"error","name":"InvalidFee","inputs":[]},{"type":"error","name":"InvalidShortString","inputs":[]},{"type":"error","name":"NonExistentCampaign","inputs":[]},{"type":"error","name":"OwnableInvalidOwner","inputs":[{"name":"owner","type":"address","internalType":"address"}]},{"type":"error","name":"OwnableUnauthorizedAccount","inputs":[{"name":"account","type":"address","internalType":"address"}]},{"type":"error","name":"ReentrancyGuardReentrantCall","inputs":[]},{"type":"error","name":"SafeERC20FailedOperation","inputs":[{"name":"token","type":"address","internalType":"address"}]},{"type":"error","name":"StringTooLong","inputs":[{"name":"str","type":"string","internalType":"string"}]},{"type":"error","name":"TransferFailed","inputs":[]}],"bytecode":{"object":"0x610180806040523461021357606081611bba80380380916100208285610217565b833981010312610213576100338161024e565b61004460406020840151930161024e565b604051610052604082610217565b6009815260208101906843616d706169676e7360b81b825260405191610079604084610217565b600383526020830191620312e360ec1b83523315610200575f8054336001600160a01b0319821681178355916001600160a01b03909116907f8be0079c531659141344cd1fd0a4f28419497f9722a3daafe3b4186f6b6457e09080a3600180556100e281610262565b610120526100ef846103fd565b61014052519020918260e05251902080610100524660a0526040519060208201927f8b73c3c69bb8fe3d512ecc4cf759cc79239f7b179b0ffacaa9a75d522b39400f8452604083015260608201524660808201523060a082015260a0815261015860c082610217565b5190206080523060c0526001600160a01b03908116610160521680156101f157600480546001600160a01b031916919091179055600555604051611684908161053682396080518161121b015260a051816112d8015260c051816111e5015260e0518161126a015261010051816112900152610120518161081a015261014051816108430152610160518181816105d40152610e7c0152f35b63e6c4247b60e01b5f5260045ffd5b631e4fbdf760e01b5f525f60045260245ffd5b5f80fd5b601f909101601f19168101906001600160401b0382119082101761023a57604052565b634e487b7160e01b5f52604160045260245ffd5b51906001600160a01b038216820361021357565b908151602081105f146102dc575090601f81511161029c57602081519101516020821061028d571790565b5f198260200360031b1b161790565b604460209160405192839163305a27a960e01b83528160048401528051918291826024860152018484015e5f828201840152601f01601f19168101030190fd5b6001600160401b03811161023a57600254600181811c911680156103f3575b60208210146103df57601f81116103ac575b50602092601f821160011461034b57928192935f92610340575b50508160011b915f199060031b1c19161760025560ff90565b015190505f80610327565b601f1982169360025f52805f20915f5b868110610394575083600195961061037c575b505050811b0160025560ff90565b01515f1960f88460031b161c191690555f808061036e565b9192602060018192868501518155019401920161035b565b60025f52601f60205f20910160051c810190601f830160051c015b8181106103d4575061030d565b5f81556001016103c7565b634e487b7160e01b5f52602260045260245ffd5b90607f16906102fb565b908151602081105f14610428575090601f81511161029c57602081519101516020821061028d571790565b6001600160401b03811161023a57600354600181811c9116801561052b575b60208210146103df57601f81116104f8575b50602092601f821160011461049757928192935f9261048c575b50508160011b915f199060031b1c19161760035560ff90565b015190505f80610473565b601f1982169360035f52805f20915f5b8681106104e057508360019596106104c8575b505050811b0160035560ff90565b01515f1960f88460031b161c191690555f80806104ba565b919260206001819286850151815501940192016104a7565b60035f52601f60205f20910160051c810190601f830160051c015b8181106105205750610459565b5f8155600101610513565b90607f169061044756fe60806040526004361015610011575f80fd5b5f3560e01c806306eaaf151461017457806311555dbc1461016f57806317b4dade1461016a57806329df6479146101655780632e75ab501461016057806331c381491461015b57806361d027b314610156578063715018a6146101515780637684fc861461014c57806384b0196e146101475780638cbfc305146101425780638da5cb5b1461013d57806393f309ec1461013857806399d32fc4146101335780639e1e77891461012e578063a894c45714610129578063baa7158a14610124578063bd64e8271461011f578063c92ca3b01461011a578063dbe6199114610115578063f0f44260146101105763f2fde38b1461010b575f80fd5b610c95565b610c4e565b610c31565b610a71565b610a05565b6109ed565b6109c3565b6109a7565b61098a565b61096d565b610946565b6108ff565b610802565b610722565b6106cb565b6106a3565b61061f565b610603565b6105bf565b61057b565b610491565b6101bf565b600435906001600160a01b038216820361018f57565b5f80fd5b60a435906001600160a01b038216820361018f57565b602435906001600160a01b038216820361018f57565b60c036600319011261018f576101d3610179565b60243560443591606435906084359360ff8516850361018f576101f4610193565b6101fc610f2a565b336001600160a01b0382161461040b576001600160a01b0383165f9081526008602052604090206102379086905b905f5260205260405f2090565b80549094906001600160a01b03161561048257600485015461047357604080516001600160a01b0386166020820190815291810188905233606082015261028b81608081015b03601f198101835282610d2e565b519020926102a1845f52600960205260405f2090565b54610464576002860197885460018801541461045557600687018054600589015411801561044d575f5b80340361043e57610351968b8a8361042c575b5050505061041a575b50604080517f73c99e649ff8ce15a96e50ed945303d1f86dbcc95c8da181c191a6df6fcfc6c2602082019081526001600160a01b03891692820192909252606081018a905233608082015261034c91906103448160a0810161027d565b519020610fc2565b610fe8565b6004546001600160a01b03166001600160a01b039091160361040b576103936103999186610383610400985460010190565b90555f52600960205260405f2090565b60019055565b6103ad6103a834600654610d77565b600655565b8154600390920154604080516001600160a01b039485168082526020820184905292959294339416917f57ac1224ab127b0a739ea8536f96fa40e5ab8425d9242147fb4abe5c656925e091a4339061101f565b61040960018055565b005b63e6c4247b60e01b5f5260045ffd5b6104248154610d69565b90555f6102e7565b61043593610f4a565b5f808b8a6102de565b6358d620b360e01b5f5260045ffd5b6005546102cb565b63e38a9e8160e01b5f5260045ffd5b630c8d9eab60e31b5f5260045ffd5b63952ce6dd60e01b5f5260045ffd5b63f456b65960e01b5f5260045ffd5b3461018f57604036600319011261018f576104aa610179565b6001600160a01b039081165f9081526008602090815260408083206024358452825291829020805460018201546002830154600384015460048501546005860154600690960154885195909916855295840192909252948201949094526060810193909352608083019190915260a082015260c081019190915260e090f35b0390f35b608090600319011261018f57600435906024356001600160a01b038116810361018f57906044356001600160a01b038116810361018f57906064356001600160a01b038116810361018f5790565b3461018f5761052961059861058f3661052d565b92919091610daf565b604080519384526020840192909252908201529081906060820190565b5f91031261018f57565b3461018f575f36600319011261018f576040517f00000000000000000000000000000000000000000000000000000000000000006001600160a01b03168152602090f35b602036600319011261018f5760043561061a6110d7565b600555005b602036600319011261018f57610633610179565b61063b6110d7565b610643610f2a565b6006549081610653575b60018055005b5f808093819382600655807fd964a27d45f595739c13d8b1160b57491050cacf3a2e5602207277d6228f64ee6020604051858152a25af115610696575f8061064d565b6390b8ec185f526004601cfd5b3461018f575f36600319011261018f57600b546040516001600160a01b039091168152602090f35b3461018f575f36600319011261018f576106e36110d7565b5f80546001600160a01b0319811682556001600160a01b03167f8be0079c531659141344cd1fd0a4f28419497f9722a3daafe3b4186f6b6457e08280a3005b3461018f57602036600319011261018f5760043561073e610f2a565b335f52600860205261075b8160405f20905f5260205260405f2090565b80546001600160a01b0316156104825760048101918254610473576107836104009360019055565b337f06a0982d8b0bd87e1ae43f31a116ca52b1353fbc3dc30a1a97cf143da800cb0d5f80a380546107d6906001600160a01b03169160036107cd6001830154600284015490610e4a565b91015490610d9c565b90339061101f565b805180835260209291819084018484015e5f828201840152601f01601f1916010190565b3461018f575f36600319011261018f576108a661083e7f000000000000000000000000000000000000000000000000000000000000000061141a565b6108677f0000000000000000000000000000000000000000000000000000000000000000611500565b60206040516108768282610d2e565b5f8152816108b481830194601f198301368737604051978897600f60f81b895260e0858a015260e08901906107de565b9087820360408901526107de565b914660608701523060808701525f60a087015285830360c087015251918281520192915f5b8281106108e857505050500390f35b8351855286955093810193928101926001016108d9565b602036600319011261018f57610913610179565b61091b6110d7565b6001600160a01b0316801561040b576bffffffffffffffffffffffff60a01b60045416176004555f80f35b3461018f575f36600319011261018f575f546040516001600160a01b039091168152602090f35b3461018f575f36600319011261018f576020600a54604051908152f35b3461018f575f36600319011261018f576020600554604051908152f35b602036600319011261018f576004356109be6110d7565b600a55005b3461018f57602036600319011261018f576004355f526009602052602060405f2054604051908152f35b6105296105986109fc3661052d565b92919091610e62565b606036600319011261018f57610a19610179565b60243560443591610a28610f2a565b60018060a01b03165f52600860205260405f20905f5260205260405f20906005820191825490828201809211610a6c576001015481116104555761064d92556110fd565b610d55565b60a036600319011261018f57610a85610179565b610a8d6101a9565b6084359160643590604435610aa0610f2a565b6001600160a01b0384169081158015610c20575b61040b5780158015610c18575b610c0957808611610455576001600160a01b0383165f908152600760209081526040808320805460018101909155600890925282209096610b6293929160069190610b3090610b11908b9061022a565b80546001600160a01b0319166001600160a01b03909316929092178255565b8360018201558260028201558760038201558260048201558960058201550155610b5c600a5488610d9c565b94610d9c565b73eeeeeeeeeeeeeeeeeeeeeeeeeeeeeeeeeeeeeeee8214610bf957610b8a913090339061119e565b815b3403610bea57610529938392610bdb575b507ffc5b9d1c2c1134048e1792e3ae27d4eee04f460d341711c7088000d2ca2186215f80a3610bcb60018055565b6040519081529081906020820190565b610be4906110fd565b5f610b9d565b636956f2ab60e11b5f5260045ffd5b610c04915083610d77565b610b8c565b631a49577b60e11b5f5260045ffd5b508315610ac1565b506001600160a01b03831615610ab4565b3461018f575f36600319011261018f576020600654604051908152f35b602036600319011261018f57610c62610179565b610c6a6110d7565b6001600160a01b0316801561040b576bffffffffffffffffffffffff60a01b600b541617600b555f80f35b3461018f57602036600319011261018f57610cae610179565b610cb66110d7565b6001600160a01b03168015610d07575f80546001600160a01b03198116831782556001600160a01b0316907f8be0079c531659141344cd1fd0a4f28419497f9722a3daafe3b4186f6b6457e09080a3005b631e4fbdf760e01b5f525f60045260245ffd5b634e487b7160e01b5f52604160045260245ffd5b90601f8019910116810190811067ffffffffffffffff821117610d5057604052565b610d1a565b634e487b7160e01b5f52601160045260245ffd5b5f198114610a6c5760010190565b91908201809211610a6c57565b906103e88202918083046103e81490151715610a6c57565b81810292918115918404141715610a6c57565b936001600160a01b0393841693909291811615911680159190911790831417610e3d57611770830283159084810461177014821715610a6c57612710900490610bb8850290858204610bb8141715610a6c57610e19610e13610e2192612710900490565b95610d84565b612710900490565b9215610e2c57929190565b91610e379192610d77565b91905f90565b63e6c4247b5f526004601cfd5b91908203918211610a6c57565b6040513d5f823e3d90fd5b9293919093610e7381838787610daf565b909690959193907f00000000000000000000000000000000000000000000000000000000000000006001600160a01b031690813b1561018f57604051631979bd3d60e11b81526001600160a01b03918216600482015260248101879052928116604484015260648301899052909316608482015260a48101869052915f91839160c49183915af18015610f2557610f0b575b50929190565b80610f195f610f1f93610d2e565b806105b5565b5f610f05565b610e57565b600260015414610f3b576002600155565b633ee5aeb560e01b5f5260045ffd5b909260c0927fce4f11d5ca467190fc6b34bd6f162cfcfe758255f933a3278cd374e85a584ce694610f87838260018060a01b03600b541687610e62565b5050600b54604080519687523360208801526001600160a01b039182169087015291821660608601525060808401919091521660a0820152a1565b604290610fcd6111e2565b906040519161190160f01b8352600283015260228201522090565b916110009391610ff7936112fe565b9092919261139e565b90565b67ffffffffffffffff8111610d5057601f01601f191660200190565b9091906001600160a01b031673eeeeeeeeeeeeeeeeeeeeeeeeeeeeeeeeeeeeeeee811461108a5760405163a9059cbb60e01b60208201526001600160a01b039390931660248401526044808401929092529082526110889190611083606483610d2e565b6115b8565b565b505f8080939281935af13d156110d2573d6110a481611003565b906110b26040519283610d2e565b81525f60203d92013e5b156110c357565b6312171d8360e31b5f5260045ffd5b6110bc565b5f546001600160a01b031633036110ea57565b63118cdaa760e01b5f523360045260245ffd5b611109600a5482610d9c565b803410610bea57600b545f918291829182916001600160a01b03165af13d15611199573d61113681611003565b906111446040519283610d2e565b81525f60203d92013e5b156110c35760607f978e560313f19f9598550bad7656c2f24c14885c23eec450c3777ac7d4a83b1e91600a5460018060a01b03600b54169060405192835260208301526040820152a1565b61114e565b6040516323b872dd60e01b60208201526001600160a01b03928316602482015292909116604483015260648083019390935291815261108891611083608483610d2e565b307f00000000000000000000000000000000000000000000000000000000000000006001600160a01b031614806112d5575b1561123d577f000000000000000000000000000000000000000000000000000000000000000090565b60405160208101907f8b73c3c69bb8fe3d512ecc4cf759cc79239f7b179b0ffacaa9a75d522b39400f82527f000000000000000000000000000000000000000000000000000000000000000060408201527f000000000000000000000000000000000000000000000000000000000000000060608201524660808201523060a082015260a081526112cf60c082610d2e565b51902090565b507f00000000000000000000000000000000000000000000000000000000000000004614611214565b91907f7fffffffffffffffffffffffffffffff5d576e7357a4501ddfe92f46681b20a08411611375579160209360809260ff5f9560405194855216868401526040830152606082015282805260015afa15610f25575f516001600160a01b0381161561136b57905f905f90565b505f906001905f90565b5050505f9160039190565b6004111561138a57565b634e487b7160e01b5f52602160045260245ffd5b6113a781611380565b806113b0575050565b6113b981611380565b600181036113d05763f645eedf60e01b5f5260045ffd5b6113d981611380565b600281036113f4575063fce698f760e01b5f5260045260245ffd5b80611400600392611380565b146114085750565b6335e2f38360e21b5f5260045260245ffd5b60ff811461142b5761100090611610565b506040515f6002548060011c916001821680156114f6575b6020841081146114e257838552849260208401919081156114c95750600114611474575b5061100092500382610d2e565b60025f90815291507f405787fa12a823e0f2b7631cc41b3ba8828b3321ca811111fa75cd3aa3bb5ace5b8483106114b257506110009350015f611467565b80548284015285935060209092019160010161149e565b60ff191682525061100093151560051b0190505f611467565b634e487b7160e01b5f52602260045260245ffd5b92607f1692611443565b60ff81146115115761100090611610565b506040515f6003548060011c916001821680156115ae575b6020841081146114e257838552849260208401919081156114c95750600114611559575061100092500382610d2e565b60035f90815291507fc2575a0e9e593c00f959f8c92f12db2869c3395a3b0502d05e2516446f71f85b5b84831061159757506110009350015f611467565b805482840152859350602090920191600101611583565b92607f1692611529565b905f602091828151910182855af115610e57575f513d61160757506001600160a01b0381163b155b6115e75750565b635274afe760e01b5f9081526001600160a01b0391909116600452602490fd5b600114156115e0565b60ff811690601f821161163f576040519161162c604084610d2e565b6020808452838101919036833783525290565b632cd44ac360e21b5f5260045ffdfea264697066735822122087ae8d3b0a0bf24ca76a8d2ffe5b34a5ab896807852526f7f09204464be6d2ec64736f6c634300081a0033","linkReferences":{}},"methodIdentifiers":{"campaigns(address,uint256)":"11555dbc","claim(address,uint256,bytes32,bytes32,uint8,address)":"06eaaf15","claimFee()":"99d32fc4","createCampaign(address,address,uint256,uint256,uint256)":"c92ca3b0","eip712Domain()":"84b0196e","hasClaimed(bytes32)":"a894c457","increaseMaxSponsoredClaims(address,uint256,uint256)":"bd64e827","owner()":"8da5cb5b","protocolRewards()":"29df6479","renounceOwnership()":"715018a6","setClaimFee(uint256)":"2e75ab50","setSponsoredClaimFee(uint256)":"9e1e7789","setTreasury(address)":"f0f44260","setTrustedAddress(address)":"8cbfc305","splitAndDepositRewards(uint256,address,address,address)":"baa7158a","splitRewards(uint256,address,address,address)":"17b4dade","sponsoredClaimFee()":"93f309ec","totalClaimFees()":"dbe61991","transferOwnership(address)":"f2fde38b","treasury()":"61d027b3","withdrawCampaign(uint256)":"7684fc86","withdrawTotalClaimFees(address)":"31c38149"},"id":64}