{"abi":[{"type":"constructor","inputs":[{"name":"_earnkitTeamRecipient","type":"address","internalType":"address"},{"name":"_earnkitTeamRewardBps","type":"uint256","internalType":"uint256"},{"name":"_positionManagerAddr","type":"address","internalType":"address"},{"name":"_aiAgentRecipient","type":"address","internalType":"address"},{"name":"_aiAgentRewardBps","type":"uint256","internalType":"uint256"}],"stateMutability":"nonpayable"},{"type":"function","name":"addUserRewardRecipient","inputs":[{"name":"_recipient","type":"tuple","internalType":"struct LpLocker.UserRewardRecipient","components":[{"name":"recipient","type":"address","internalType":"address"},{"name":"lpTokenId","type":"uint256","internalType":"uint256"}]}],"outputs":[],"stateMutability":"nonpayable"},{"type":"function","name":"collectRewards","inputs":[{"name":"_tokenId","type":"uint256","internalType":"uint256"}],"outputs":[],"stateMutability":"nonpayable"},{"type":"function","name":"factory","inputs":[],"outputs":[{"name":"","type":"address","internalType":"address"}],"stateMutability":"view"},{"type":"function","name":"getLpTokenIdsForUser","inputs":[{"name":"_user","type":"address","internalType":"address"}],"outputs":[{"name":"","type":"uint256[]","internalType":"uint256[]"}],"stateMutability":"view"},{"type":"function","name":"onERC721Received","inputs":[{"name":"","type":"address","internalType":"address"},{"name":"_from","type":"address","internalType":"address"},{"name":"_id","type":"uint256","internalType":"uint256"},{"name":"","type":"bytes","internalType":"bytes"}],"outputs":[{"name":"","type":"bytes4","internalType":"bytes4"}],"stateMutability":"nonpayable"},{"type":"function","name":"owner","inputs":[],"outputs":[{"name":"","type":"address","internalType":"address"}],"stateMutability":"view"},{"type":"function","name":"positionManager","inputs":[],"outputs":[{"name":"","type":"address","internalType":"address"}],"stateMutability":"view"},{"type":"function","name":"renounceOwnership","inputs":[],"outputs":[],"stateMutability":"nonpayable"},{"type":"function","name":"replaceUserRewardRecipient","inputs":[{"name":"_recipient","type":"tuple","internalType":"struct LpLocker.UserRewardRecipient","components":[{"name":"recipient","type":"address","internalType":"address"},{"name":"lpTokenId","type":"uint256","internalType":"uint256"}]}],"outputs":[],"stateMutability":"nonpayable"},{"type":"function","name":"setOverrideTeamRewardsForToken","inputs":[{"name":"_tokenId","type":"uint256","internalType":"uint256"},{"name":"_newTeamRecipient","type":"address","internalType":"address"},{"name":"_newTeamReward","type":"uint256","internalType":"uint256"}],"outputs":[],"stateMutability":"nonpayable"},{"type":"function","name":"teamOverrideRewardRecipientForToken","inputs":[{"name":"","type":"uint256","internalType":"uint256"}],"outputs":[{"name":"recipient","type":"address","internalType":"address"},{"name":"reward","type":"uint256","internalType":"uint256"},{"name":"lpTokenId","type":"uint256","internalType":"uint256"}],"stateMutability":"view"},{"type":"function","name":"transferOwnership","inputs":[{"name":"newOwner","type":"address","internalType":"address"}],"outputs":[],"stateMutability":"nonpayable"},{"type":"function","name":"updateAiAgentRecipient","inputs":[{"name":"_newRecipient","type":"address","internalType":"address"}],"outputs":[],"stateMutability":"nonpayable"},{"type":"function","name":"updateAiAgentReward","inputs":[{"name":"_newReward","type":"uint256","internalType":"uint256"}],"outputs":[],"stateMutability":"nonpayable"},{"type":"function","name":"updateEarnkitFactory","inputs":[{"name":"_newFactory","type":"address","internalType":"address"}],"outputs":[],"stateMutability":"nonpayable"},{"type":"function","name":"updateEarnkitTeamRecipient","inputs":[{"name":"_newRecipient","type":"address","internalType":"address"}],"outputs":[],"stateMutability":"nonpayable"},{"type":"function","name":"updateEarnkitTeamReward","inputs":[{"name":"_newReward","type":"uint256","internalType":"uint256"}],"outputs":[],"stateMutability":"nonpayable"},{"type":"function","name":"userRewardRecipientForToken","inputs":[{"name":"","type":"uint256","internalType":"uint256"}],"outputs":[{"name":"recipient","type":"address","internalType":"address"},{"name":"lpTokenId","type":"uint256","internalType":"uint256"}],"stateMutability":"view"},{"type":"function","name":"userTokenIds","inputs":[{"name":"","type":"address","internalType":"address"},{"name":"","type":"uint256","internalType":"uint256"}],"outputs":[{"name":"","type":"uint256","internalType":"uint256"}],"stateMutability":"view"},{"type":"function","name":"withdrawERC20","inputs":[{"name":"_token","type":"address","internalType":"address"},{"name":"_recipient","type":"address","internalType":"address"}],"outputs":[],"stateMutability":"nonpayable"},{"type":"function","name":"withdrawETH","inputs":[{"name":"_recipient","type":"address","internalType":"address"}],"outputs":[],"stateMutability":"nonpayable"},{"type":"event","name":"ClaimedRewards","inputs":[{"name":"claimer","type":"address","indexed":true,"internalType":"address"},{"name":"token0","type":"address","indexed":true,"internalType":"address"},{"name":"token1","type":"address","indexed":true,"internalType":"address"},{"name":"amount0","type":"uint256","indexed":false,"internalType":"uint256"},{"name":"amount1","type":"uint256","indexed":false,"internalType":"uint256"},{"name":"totalAmount0","type":"uint256","indexed":false,"internalType":"uint256"},{"name":"totalAmount1","type":"uint256","indexed":false,"internalType":"uint256"}],"anonymous":false},{"type":"event","name":"OwnershipTransferred","inputs":[{"name":"previousOwner","type":"address","indexed":true,"internalType":"address"},{"name":"newOwner","type":"address","indexed":true,"internalType":"address"}],"anonymous":false},{"type":"event","name":"Received","inputs":[{"name":"from","type":"address","indexed":true,"internalType":"address"},{"name":"tokenId","type":"uint256","indexed":true,"internalType":"uint256"}],"anonymous":false},{"type":"error","name":"ExceedsMaxBps","inputs":[]},{"type":"error","name":"InvalidRewardPercentage","inputs":[]},{"type":"error","name":"InvalidTokenId","inputs":[{"name":"tokenId","type":"uint256","internalType":"uint256"}]},{"type":"error","name":"NotAllowed","inputs":[{"name":"user","type":"address","internalType":"address"}]},{"type":"error","name":"OwnableInvalidOwner","inputs":[{"name":"owner","type":"address","internalType":"address"}]},{"type":"error","name":"OwnableUnauthorizedAccount","inputs":[{"name":"account","type":"address","internalType":"address"}]}],"bytecode":{"object":"0x60c03461012757601f61139338819003918201601f19168301916001600160401b0383118484101761012b5780849260a094604052833981010312610127576100478161013f565b6020820151916100596040820161013f565b60806100676060840161013f565b920151926001600160a01b03168015610114575f80546001600160a01b0319811683178255604051969183916001600160a01b0316907f8be0079c531659141344cd1fd0a4f28419497f9722a3daafe3b4186f6b6457e09080a360025560018060a01b0319600354161760035560805260018060a01b031660018060a01b0319600654161760065560055561123f908161015482396080518181816104890152610d45015260a051815050f35b631e4fbdf760e01b5f525f60045260245ffd5b5f80fd5b634e487b7160e01b5f52604160045260245ffd5b51906001600160a01b03821682036101275756fe6080806040526004361015610012575f80fd5b5f3560e01c9081630af50d8914610fee57508063150b7a0214610f2e578063182d48c614610ee95780633edc628f14610ea65780635e22f94f14610e17578063690d832014610dcb578063715018a614610d74578063791b98bc14610d305780638da5cb5b14610d095780639456fbcc14610c16578063acfb2ec914610bda578063af0c7c2914610a48578063b18486d71461043b578063c45a015514610413578063cc17e15d146103bb578063cd8852f014610307578063d996b47d146102c4578063db89721e14610228578063e7ae4107146101e5578063f2fde38b146101605763f43d8ba914610103575f80fd5b3461015c57602036600319011261015c5760043561011f6111e3565b6064811161014e5760646101356005548361116c565b1161013f57600255005b632b72818d60e01b5f5260045ffd5b62a45f3360e21b5f5260045ffd5b5f80fd5b3461015c57602036600319011261015c57610179611034565b6101816111e3565b6001600160a01b031680156101d2575f80546001600160a01b03198116831782556001600160a01b0316907f8be0079c531659141344cd1fd0a4f28419497f9722a3daafe3b4186f6b6457e09080a3005b631e4fbdf760e01b5f525f60045260245ffd5b3461015c57602036600319011261015c576101fe611034565b6102066111e3565b600380546001600160a01b0319166001600160a01b0392909216919091179055005b3461015c57606036600319011261015c5760043561024461104a565b90604435906102516111e3565b6064821161014e5760646102676005548461116c565b1161013f576002916040519361027c8561107c565b6001600160a01b039081168552602080860192835260408087018581525f9586526008909252909320945185546001600160a01b031916911617845551600184015551910155005b3461015c57602036600319011261015c576102dd611034565b6102e56111e3565b600480546001600160a01b0319166001600160a01b0392909216919091179055005b3461015c57602036600319011261015c576001600160a01b03610328611034565b165f52600960205260405f20604051806020835491828152019081935f5260205f20905f5b8181106103a55750505081610363910382611098565b604051918291602083019060208452518091526040830191905f5b81811061038c575050500390f35b825184528594506020938401939092019160010161037e565b825484526020909301926001928301920161034d565b3461015c57604036600319011261015c576103d4611034565b6001600160a01b03165f9081526009602052604090208054602435919082101561015c57602091610404916110f2565b90549060031b1c604051908152f35b3461015c575f36600319011261015c576004546040516001600160a01b039091168152602090f35b3461015c57602036600319011261015c57600435805f52600760205260405f209060405161046881611060565b60206001808060a01b038554169485845201549101528115610a36576040517f00000000000000000000000000000000000000000000000000000000000000006001600160a01b03169290916080830167ffffffffffffffff811184821017610a2257604090815281845230602085019081526001600160801b0385830181815260608701828152845163fc6f786560e01b81529751600489015292516001600160a01b0316602488015251811660448701529051166064850152836084815f885af1928315610880575f905f946109e5575b50610180602494956040519586809263133f757160e31b82528660048301525afa938415610880575f905f95610921575b50839060018060a01b03169460018060a01b03169560018060a01b03600354169260025460018060a01b036006541690600554965f5260086020528860405f206040516105b88161107c565b60018060a01b038254169081815260406002600185015494856020850152015491015280610912575b505061068161064196979883602088610633956106498a61063c60648061060b6106159d856111c3565b049b8c98876111c3565b049e8f9861063c60648061062984886111c3565b049d8e938a6111c3565b049d8e956111d6565b6111d6565b9e8f956111d6565b60405163a9059cbb60e01b81526001600160a01b03909e1660048f015260248e0192909252909b9485919082905f9082906044820190565b03925af18015610880578a8f8e6106d2966020946108f7575b5060405163a9059cbb60e01b81526001600160a01b0390911660048201526024810192909252909485919082905f9082906044820190565b03925af190811561088057610720936020926108dc575b5060405163a9059cbb60e01b81526001600160a01b038d16600482015260248101919091529283908e9082905f9082906044820190565b03925af18015610880576107709a6020938f926108c1575b5060405163a9059cbb60e01b81526001600160a01b039091166004820152602481019290925290998a919082905f9082906044820190565b03925af1908115610880576107b8986020926108a6575b5060405163a9059cbb60e01b81526001600160a01b0385166004820152602481019190915297889081906044820190565b03815f8d5af1918215610880576108039760209361088b575b5060405163a9059cbb60e01b81526001600160a01b039091166004820152602481019190915295869081906044820190565b03815f8c5af1938415610880577f371e1f3c7465954c17e4a26f8a768238ab06ee6557de2bdd0fad0dda6d18167895608095610853575b50604051938452602084015260408301526060820152a4005b6108749060203d602011610879575b61086c8183611098565b810190611154565b61083a565b503d610862565b6040513d5f823e3d90fd5b6108a190843d86116108795761086c8183611098565b6107d1565b6108bc90833d85116108795761086c8183611098565b610787565b6108d790853d87116108795761086c8183611098565b610738565b6108f290833d85116108795761086c8183611098565b6106e9565b61090d90853d87116108795761086c8183611098565b61069a565b975091506106816106416105e1565b945050610180843d82116109dd575b8161093e6101809383611098565b8101031261015c5783516bffffffffffffffffffffffff81160361015c576109686020850161118d565b506109756040850161118d565b936109826060820161118d565b94608082015162ffffff81160361015c576109d6610160836109a760a08996016111a1565b506109b460c082016111a1565b506109c160e082016111af565b506109cf61014082016111af565b50016111af565b509061056c565b3d9150610930565b9350506040833d604011610a1a575b81610a0160409383611098565b8101031261015c5782516020909301519261018061053b565b3d91506109f4565b634e487b7160e01b5f52604160045260245ffd5b63ed15e6cf60e01b5f5260045260245ffd5b3461015c57610a56366110ba565b6020810180515f52600760205260405f20604051610a7381611060565b60206001808060a01b0384541693848452015491015260018060a01b035f54163314159081610bcf575b50610bbc5780515f5260076020525f600160408220828155015560018060a01b038251165f52600960205260405f2091604051808460208296549384815201905f5260205f20925f5b818110610ba3575050610afb92500384611098565b5f5b8351811015610b515760019060208160051b86010151845114610b21575b01610afd565b818060a01b038351165f526009602052610b3e8160405f206110f2565b8154905f199060031b1b19169055610b1b565b82515f908152600760209081526040808320855181546001600160a01b0319166001600160a01b0391909116908117825587516001909201919091558352600990915290208351610ba19161111b565b005b8454835260019485019488945060209093019201610ae6565b63fa5cd00f60e01b5f523360045260245ffd5b905033141583610a9d565b3461015c57602036600319011261015c57600435610bf66111e3565b6064811161014e576064610c0c6002548361116c565b1161013f57600555005b3461015c57604036600319011261015c57610c2f611034565b610c3761104a565b90610c406111e3565b6040516370a0823160e01b81523060048201526001600160a01b039190911691602082602481865afa918215610880575f92610cd3575b5060405163a9059cbb60e01b81526001600160a01b0390911660048201526024810191909152906020908290815f81604481015b03925af1801561088057610cbb57005b610ba19060203d6020116108795761086c8183611098565b91506020823d602011610d01575b81610cee60209383611098565b8101031261015c57905190610cab610c77565b3d9150610ce1565b3461015c575f36600319011261015c575f546040516001600160a01b039091168152602090f35b3461015c575f36600319011261015c576040517f00000000000000000000000000000000000000000000000000000000000000006001600160a01b03168152602090f35b3461015c575f36600319011261015c57610d8c6111e3565b5f80546001600160a01b0319811682556001600160a01b03167f8be0079c531659141344cd1fd0a4f28419497f9722a3daafe3b4186f6b6457e08280a3005b3461015c57602036600319011261015c575f808080610de8611034565b610df06111e3565b479082908215610e0d575b6001600160a01b031690f11561088057005b6108fc9150610dfb565b3461015c57610e25366110ba565b5f546001600160a01b031633141580610e91575b610bbc57602080820180515f908152600783526040808220945185546001600160a01b0319166001600160a01b03919091169081178655835160019096019590955593815260099092529190209051610ba19161111b565b506004546001600160a01b0316331415610e39565b3461015c57602036600319011261015c57610ebf611034565b610ec76111e3565b600680546001600160a01b0319166001600160a01b0392909216919091179055005b3461015c57602036600319011261015c576004355f90815260076020908152604091829020805460019091015483516001600160a01b03909216825291810191909152f35b3461015c57608036600319011261015c57610f47611034565b50610f5061104a565b60643567ffffffffffffffff811161015c573660238201121561015c57806004013567ffffffffffffffff811161015c573691016024011161015c576004546001600160a01b0391821691168103610fdc57604051602091604435907f88a5966d370b9919b20f3e2c13ff65706f196a4e32cc2c12bf57088f885258745f80a3630a85bd0160e11b8152f35b63fa5cd00f60e01b5f5260045260245ffd5b3461015c57602036600319011261015c576060906004355f52600860205260405f2060018060a01b03815416906002600182015491015491835260208301526040820152f35b600435906001600160a01b038216820361015c57565b602435906001600160a01b038216820361015c57565b6040810190811067ffffffffffffffff821117610a2257604052565b6060810190811067ffffffffffffffff821117610a2257604052565b90601f8019910116810190811067ffffffffffffffff821117610a2257604052565b604090600319011261015c576040516110d281611060565b6004356001600160a01b038116810361015c578152602435602082015290565b8054821015611107575f5260205f2001905f90565b634e487b7160e01b5f52603260045260245ffd5b805468010000000000000000811015610a225761113d916001820181556110f2565b819291549060031b91821b915f19901b1916179055565b9081602091031261015c5751801515810361015c5790565b9190820180921161117957565b634e487b7160e01b5f52601160045260245ffd5b51906001600160a01b038216820361015c57565b51908160020b820361015c57565b51906001600160801b038216820361015c57565b8181029291811591840414171561117957565b9190820391821161117957565b5f546001600160a01b031633036111f657565b63118cdaa760e01b5f523360045260245ffdfea26469706673582212203581a2a8951f61563093b25b38daeffc2d86aaf97feba507f8ee872fe3d613bf64736f6c634300081a0033","linkReferences":{}},"methodIdentifiers":{"addUserRewardRecipient((address,uint256))":"5e22f94f","collectRewards(uint256)":"b18486d7","factory()":"c45a0155","getLpTokenIdsForUser(address)":"cd8852f0","onERC721Received(address,address,uint256,bytes)":"150b7a02","owner()":"8da5cb5b","positionManager()":"791b98bc","renounceOwnership()":"715018a6","replaceUserRewardRecipient((address,uint256))":"af0c7c29","setOverrideTeamRewardsForToken(uint256,address,uint256)":"db89721e","teamOverrideRewardRecipientForToken(uint256)":"0af50d89","transferOwnership(address)":"f2fde38b","updateAiAgentRecipient(address)":"3edc628f","updateAiAgentReward(uint256)":"acfb2ec9","updateEarnkitFactory(address)":"d996b47d","updateEarnkitTeamRecipient(address)":"e7ae4107","updateEarnkitTeamReward(uint256)":"f43d8ba9","userRewardRecipientForToken(uint256)":"182d48c6","userTokenIds(address,uint256)":"cc17e15d","withdrawERC20(address,address)":"9456fbcc","withdrawETH(address)":"690d8320"},"id":63}