{"abi":[{"type":"function","name":"balanceOf","inputs":[{"name":"","type":"address","internalType":"address"}],"outputs":[{"name":"","type":"uint256","internalType":"uint256"}],"stateMutability":"view"},{"type":"function","name":"depositRewards","inputs":[{"name":"_platform","type":"address","internalType":"address"},{"name":"_platformReward","type":"uint256","internalType":"uint256"},{"name":"_creator","type":"address","internalType":"address"},{"name":"_creatorReward","type":"uint256","internalType":"uint256"},{"name":"_referrer","type":"address","internalType":"address"},{"name":"_referrerReward","type":"uint256","internalType":"uint256"}],"outputs":[],"stateMutability":"payable"},{"type":"function","name":"withdrawRewards","inputs":[{"name":"_account","type":"address","internalType":"address payable"}],"outputs":[],"stateMutability":"nonpayable"},{"type":"event","name":"RewardsDeposited","inputs":[{"name":"sender","type":"address","indexed":false,"internalType":"address"},{"name":"_platform","type":"address","indexed":true,"internalType":"address"},{"name":"_platformReward","type":"uint256","indexed":false,"internalType":"uint256"},{"name":"_creator","type":"address","indexed":true,"internalType":"address"},{"name":"_creatorReward","type":"uint256","indexed":false,"internalType":"uint256"},{"name":"_referrer","type":"address","indexed":true,"internalType":"address"},{"name":"_referrerReward","type":"uint256","indexed":false,"internalType":"uint256"}],"anonymous":false},{"type":"event","name":"Withdrawal","inputs":[{"name":"_account","type":"address","indexed":true,"internalType":"address"},{"name":"_amount","type":"uint256","indexed":false,"internalType":"uint256"}],"anonymous":false},{"type":"error","name":"InvalidAmount","inputs":[]},{"type":"error","name":"TransferFailed","inputs":[]}],"bytecode":{"object":"0x60808060405234601557610304908161001a8239f35b5f80fdfe60806040526004361015610011575f80fd5b5f3560e01c806332f37a7a1461004457806342d866931461003f576370a082311461003a575f80fd5b610273565b6101e0565b60c03660031901126101cb5760043561005c816101cf565b602435906044359061006d826101cf565b6084359260643561007d856101cf565b60a435916100948361008f84846102ad565b6102ad565b34036101be576001600160a01b038416937fea2fdf7406d73ac5543899b986199b33f5d424510e1cef6a9d120ce546868bca936080939091861515806101b5575b61018c575b506001600160a01b0387169687151580610183575b61015a575b506001600160a01b0388169788151580610151575b610128575b5060405192338452602084015260408301526060820152a4005b6001600160a01b03165f9081526020819052604090206101498382546102ad565b90558861010e565b50821515610109565b6001600160a01b03165f90815260208190526040902061017b8282546102ad565b9055886100f4565b508115156100ef565b6001600160a01b03165f9081526020819052604090206101ad8482546102ad565b9055886100da565b508315156100d5565b632c5211c65f526004601cfd5b5f80fd5b6001600160a01b038116036101cb57565b346101cb5760203660031901126101cb576004356101fd816101cf565b6001600160a01b0381165f8181526020819052604090205490918115610271575f8080848194878352826020528260408120555af1156102645760207f7fcf532c15f0a6db0bd6d0e038bea71d30d808c7d98cb3bf7268a95bf5081b6591604051908152a2005b6390b8ec185f526004601cfd5b005b346101cb5760203660031901126101cb57600435610290816101cf565b60018060a01b03165f525f602052602060405f2054604051908152f35b919082018092116102ba57565b634e487b7160e01b5f52601160045260245ffdfea2646970667358221220a47afac033f2fac506193b430821962aae64d73794c9d0f19cba434ab1d84da964736f6c634300081a0033","linkReferences":{}},"methodIdentifiers":{"balanceOf(address)":"70a08231","depositRewards(address,uint256,address,uint256,address,uint256)":"32f37a7a","withdrawRewards(address)":"42d86693"},"id":65}